{"contracts/Counter.sol":{"Counter":{"abi":[{"inputs":[{"internalType":"uint256","name":"_num1","type":"uint256"},{"internalType":"uint256","name":"_num2","type":"uint256"}],"name":"add","outputs":[],"stateMutability":"nonpayable","type":"function"},{"inputs":[],"name":"addition","outputs":[{"internalType":"uint256","name":"","type":"uint256"}],"stateMutability":"view","type":"function"},{"inputs":[{"internalType":"uint256","name":"_num1","type":"uint256"},{"internalType":"uint256","name":"_num2","type":"uint256"}],"name":"div","outputs":[],"stateMutability":"nonpayable","type":"function"},{"inputs":[],"name":"divided","outputs":[{"internalType":"uint256","name":"","type":"uint256"}],"stateMutability":"view","type":"function"},{"inputs":[{"internalType":"uint256","name":"_num1","type":"uint256"},{"internalType":"uint256","name":"_num2","type":"uint256"}],"name":"mult","outputs":[],"stateMutability":"nonpayable","type":"function"},{"inputs":[],"name":"multiple","outputs":[{"internalType":"uint256","name":"","type":"uint256"}],"stateMutability":"view","type":"function"},{"inputs":[{"internalType":"uint256","name":"_num1","type":"uint256"},{"internalType":"uint256","name":"_num2","type":"uint256"}],"name":"sub","outputs":[],"stateMutability":"nonpayable","type":"function"},{"inputs":[],"name":"subtract","outputs":[{"internalType":"uint256","name":"","type":"uint256"}],"stateMutability":"view","type":"function"}],"evm":{"bytecode":{"linkReferences":{},"object":"608060405234801561001057600080fd5b506104e3806100206000396000f3fe608060405234801561001057600080fd5b50600436106100885760003560e01c80639aa727f61161005b5780639aa727f614610103578063a391c15b1461011f578063b67d77c51461013b578063ec5971281461015757610088565b806334390d451461008d578063437a8ae6146100ab5780636deebae3146100c9578063771602f7146100e7575b600080fd5b610095610175565b6040516100a29190610291565b60405180910390f35b6100b361017b565b6040516100c09190610291565b60405180910390f35b6100d1610181565b6040516100de9190610291565b60405180910390f35b61010160048036038101906100fc91906102dd565b610187565b005b61011d600480360381019061011891906102dd565b61019d565b005b610139600480360381019061013491906102dd565b6101b3565b005b610155600480360381019061015091906102dd565b6101d6565b005b61015f610272565b60405161016c9190610291565b60405180910390f35b60035481565b60025481565b60015481565b8082610193919061034c565b6000819055505050565b80826101a99190610380565b6002819055505050565b600081116101c057600080fd5b80826101cc91906103f1565b6003819055505050565b60008211610219576040517f08c379a000000000000000000000000000000000000000000000000000000000815260040161021090610459565b60405180910390fd5b6000811161025c576040517f08c379a000000000000000000000000000000000000000000000000000000000815260040161025390610459565b60405180910390fd5b80826102689190610479565b6001819055505050565b60005481565b6000819050919050565b61028b81610278565b82525050565b60006020820190506102a66000830184610282565b92915050565b600080fd5b6102ba81610278565b81146102c557600080fd5b50565b6000813590506102d7816102b1565b92915050565b600080604083850312156102f4576102f36102ac565b5b6000610302858286016102c8565b9250506020610313858286016102c8565b9150509250929050565b7f4e487b7100000000000000000000000000000000000000000000000000000000600052601160045260246000fd5b600061035782610278565b915061036283610278565b925082820190508082111561037a5761037961031d565b5b92915050565b600061038b82610278565b915061039683610278565b92508282026103a481610278565b915082820484148315176103bb576103ba61031d565b5b5092915050565b7f4e487b7100000000000000000000000000000000000000000000000000000000600052601260045260246000fd5b60006103fc82610278565b915061040783610278565b925082610417576104166103c2565b5b828204905092915050565b600082825260208201905092915050565b50565b6000610443600083610422565b915061044e82610433565b600082019050919050565b6000602082019050818103600083015261047281610436565b9050919050565b600061048482610278565b915061048f83610278565b92508282039050818111156104a7576104a661031d565b5b9291505056fea2646970667358221220d7cd4c1fa36f290258e7bd6c05ccf2b1fe5d9d7d51dc2f3865a7414dfee9822564736f6c63430008120033","opcodes":"PUSH1 0x80 PUSH1 0x40 MSTORE CALLVALUE DUP1 ISZERO PUSH2 0x10 JUMPI PUSH1 0x0 DUP1 REVERT JUMPDEST POP PUSH2 0x4E3 DUP1 PUSH2 0x20 PUSH1 0x0 CODECOPY PUSH1 0x0 RETURN INVALID PUSH1 0x80 PUSH1 0x40 MSTORE CALLVALUE DUP1 ISZERO PUSH2 0x10 JUMPI PUSH1 0x0 DUP1 REVERT JUMPDEST POP PUSH1 0x4 CALLDATASIZE LT PUSH2 0x88 JUMPI PUSH1 0x0 CALLDATALOAD PUSH1 0xE0 SHR DUP1 PUSH4 0x9AA727F6 GT PUSH2 0x5B JUMPI DUP1 PUSH4 0x9AA727F6 EQ PUSH2 0x103 JUMPI DUP1 PUSH4 0xA391C15B EQ PUSH2 0x11F JUMPI DUP1 PUSH4 0xB67D77C5 EQ PUSH2 0x13B JUMPI DUP1 PUSH4 0xEC597128 EQ PUSH2 0x157 JUMPI PUSH2 0x88 JUMP JUMPDEST DUP1 PUSH4 0x34390D45 EQ PUSH2 0x8D JUMPI DUP1 PUSH4 0x437A8AE6 EQ PUSH2 0xAB JUMPI DUP1 PUSH4 0x6DEEBAE3 EQ PUSH2 0xC9 JUMPI DUP1 PUSH4 0x771602F7 EQ PUSH2 0xE7 JUMPI JUMPDEST PUSH1 0x0 DUP1 REVERT JUMPDEST PUSH2 0x95 PUSH2 0x175 JUMP JUMPDEST PUSH1 0x40 MLOAD PUSH2 0xA2 SWAP2 SWAP1 PUSH2 0x291 JUMP JUMPDEST PUSH1 0x40 MLOAD DUP1 SWAP2 SUB SWAP1 RETURN JUMPDEST PUSH2 0xB3 PUSH2 0x17B JUMP JUMPDEST PUSH1 0x40 MLOAD PUSH2 0xC0 SWAP2 SWAP1 PUSH2 0x291 JUMP JUMPDEST PUSH1 0x40 MLOAD DUP1 SWAP2 SUB SWAP1 RETURN JUMPDEST PUSH2 0xD1 PUSH2 0x181 JUMP JUMPDEST PUSH1 0x40 MLOAD PUSH2 0xDE SWAP2 SWAP1 PUSH2 0x291 JUMP JUMPDEST PUSH1 0x40 MLOAD DUP1 SWAP2 SUB SWAP1 RETURN JUMPDEST PUSH2 0x101 PUSH1 0x4 DUP1 CALLDATASIZE SUB DUP2 ADD SWAP1 PUSH2 0xFC SWAP2 SWAP1 PUSH2 0x2DD JUMP JUMPDEST PUSH2 0x187 JUMP JUMPDEST STOP JUMPDEST PUSH2 0x11D PUSH1 0x4 DUP1 CALLDATASIZE SUB DUP2 ADD SWAP1 PUSH2 0x118 SWAP2 SWAP1 PUSH2 0x2DD JUMP JUMPDEST PUSH2 0x19D JUMP JUMPDEST STOP JUMPDEST PUSH2 0x139 PUSH1 0x4 DUP1 CALLDATASIZE SUB DUP2 ADD SWAP1 PUSH2 0x134 SWAP2 SWAP1 PUSH2 0x2DD JUMP JUMPDEST PUSH2 0x1B3 JUMP JUMPDEST STOP JUMPDEST PUSH2 0x155 PUSH1 0x4 DUP1 CALLDATASIZE SUB DUP2 ADD SWAP1 PUSH2 0x150 SWAP2 SWAP1 PUSH2 0x2DD JUMP JUMPDEST PUSH2 0x1D6 JUMP JUMPDEST STOP JUMPDEST PUSH2 0x15F PUSH2 0x272 JUMP JUMPDEST PUSH1 0x40 MLOAD PUSH2 0x16C SWAP2 SWAP1 PUSH2 0x291 JUMP JUMPDEST PUSH1 0x40 MLOAD DUP1 SWAP2 SUB SWAP1 RETURN JUMPDEST PUSH1 0x3 SLOAD DUP2 JUMP JUMPDEST PUSH1 0x2 SLOAD DUP2 JUMP JUMPDEST PUSH1 0x1 SLOAD DUP2 JUMP JUMPDEST DUP1 DUP3 PUSH2 0x193 SWAP2 SWAP1 PUSH2 0x34C JUMP JUMPDEST PUSH1 0x0 DUP2 SWAP1 SSTORE POP POP POP JUMP JUMPDEST DUP1 DUP3 PUSH2 0x1A9 SWAP2 SWAP1 PUSH2 0x380 JUMP JUMPDEST PUSH1 0x2 DUP2 SWAP1 SSTORE POP POP POP JUMP JUMPDEST PUSH1 0x0 DUP2 GT PUSH2 0x1C0 JUMPI PUSH1 0x0 DUP1 REVERT JUMPDEST DUP1 DUP3 PUSH2 0x1CC SWAP2 SWAP1 PUSH2 0x3F1 JUMP JUMPDEST PUSH1 0x3 DUP2 SWAP1 SSTORE POP POP POP JUMP JUMPDEST PUSH1 0x0 DUP3 GT PUSH2 0x219 JUMPI PUSH1 0x40 MLOAD PUSH32 0x8C379A000000000000000000000000000000000000000000000000000000000 DUP2 MSTORE PUSH1 0x4 ADD PUSH2 0x210 SWAP1 PUSH2 0x459 JUMP JUMPDEST PUSH1 0x40 MLOAD DUP1 SWAP2 SUB SWAP1 REVERT JUMPDEST PUSH1 0x0 DUP2 GT PUSH2 0x25C JUMPI PUSH1 0x40 MLOAD PUSH32 0x8C379A000000000000000000000000000000000000000000000000000000000 DUP2 MSTORE PUSH1 0x4 ADD PUSH2 0x253 SWAP1 PUSH2 0x459 JUMP JUMPDEST PUSH1 0x40 MLOAD DUP1 SWAP2 SUB SWAP1 REVERT JUMPDEST DUP1 DUP3 PUSH2 0x268 SWAP2 SWAP1 PUSH2 0x479 JUMP JUMPDEST PUSH1 0x1 DUP2 SWAP1 SSTORE POP POP POP JUMP JUMPDEST PUSH1 0x0 SLOAD DUP2 JUMP JUMPDEST PUSH1 0x0 DUP2 SWAP1 POP SWAP2 SWAP1 POP JUMP JUMPDEST PUSH2 0x28B DUP2 PUSH2 0x278 JUMP JUMPDEST DUP3 MSTORE POP POP JUMP JUMPDEST PUSH1 0x0 PUSH1 0x20 DUP3 ADD SWAP1 POP PUSH2 0x2A6 PUSH1 0x0 DUP4 ADD DUP5 PUSH2 0x282 JUMP JUMPDEST SWAP3 SWAP2 POP POP JUMP JUMPDEST PUSH1 0x0 DUP1 REVERT JUMPDEST PUSH2 0x2BA DUP2 PUSH2 0x278 JUMP JUMPDEST DUP2 EQ PUSH2 0x2C5 JUMPI PUSH1 0x0 DUP1 REVERT JUMPDEST POP JUMP JUMPDEST PUSH1 0x0 DUP2 CALLDATALOAD SWAP1 POP PUSH2 0x2D7 DUP2 PUSH2 0x2B1 JUMP JUMPDEST SWAP3 SWAP2 POP POP JUMP JUMPDEST PUSH1 0x0 DUP1 PUSH1 0x40 DUP4 DUP6 SUB SLT ISZERO PUSH2 0x2F4 JUMPI PUSH2 0x2F3 PUSH2 0x2AC JUMP JUMPDEST JUMPDEST PUSH1 0x0 PUSH2 0x302 DUP6 DUP3 DUP7 ADD PUSH2 0x2C8 JUMP JUMPDEST SWAP3 POP POP PUSH1 0x20 PUSH2 0x313 DUP6 DUP3 DUP7 ADD PUSH2 0x2C8 JUMP JUMPDEST SWAP2 POP POP SWAP3 POP SWAP3 SWAP1 POP JUMP JUMPDEST PUSH32 0x4E487B7100000000000000000000000000000000000000000000000000000000 PUSH1 0x0 MSTORE PUSH1 0x11 PUSH1 0x4 MSTORE PUSH1 0x24 PUSH1 0x0 REVERT JUMPDEST PUSH1 0x0 PUSH2 0x357 DUP3 PUSH2 0x278 JUMP JUMPDEST SWAP2 POP PUSH2 0x362 DUP4 PUSH2 0x278 JUMP JUMPDEST SWAP3 POP DUP3 DUP3 ADD SWAP1 POP DUP1 DUP3 GT ISZERO PUSH2 0x37A JUMPI PUSH2 0x379 PUSH2 0x31D JUMP JUMPDEST JUMPDEST SWAP3 SWAP2 POP POP JUMP JUMPDEST PUSH1 0x0 PUSH2 0x38B DUP3 PUSH2 0x278 JUMP JUMPDEST SWAP2 POP PUSH2 0x396 DUP4 PUSH2 0x278 JUMP JUMPDEST SWAP3 POP DUP3 DUP3 MUL PUSH2 0x3A4 DUP2 PUSH2 0x278 JUMP JUMPDEST SWAP2 POP DUP3 DUP3 DIV DUP5 EQ DUP4 ISZERO OR PUSH2 0x3BB JUMPI PUSH2 0x3BA PUSH2 0x31D JUMP JUMPDEST JUMPDEST POP SWAP3 SWAP2 POP POP JUMP JUMPDEST PUSH32 0x4E487B7100000000000000000000000000000000000000000000000000000000 PUSH1 0x0 MSTORE PUSH1 0x12 PUSH1 0x4 MSTORE PUSH1 0x24 PUSH1 0x0 REVERT JUMPDEST PUSH1 0x0 PUSH2 0x3FC DUP3 PUSH2 0x278 JUMP JUMPDEST SWAP2 POP PUSH2 0x407 DUP4 PUSH2 0x278 JUMP JUMPDEST SWAP3 POP DUP3 PUSH2 0x417 JUMPI PUSH2 0x416 PUSH2 0x3C2 JUMP JUMPDEST JUMPDEST DUP3 DUP3 DIV SWAP1 POP SWAP3 SWAP2 POP POP JUMP JUMPDEST PUSH1 0x0 DUP3 DUP3 MSTORE PUSH1 0x20 DUP3 ADD SWAP1 POP SWAP3 SWAP2 POP POP JUMP JUMPDEST POP JUMP JUMPDEST PUSH1 0x0 PUSH2 0x443 PUSH1 0x0 DUP4 PUSH2 0x422 JUMP JUMPDEST SWAP2 POP PUSH2 0x44E DUP3 PUSH2 0x433 JUMP JUMPDEST PUSH1 0x0 DUP3 ADD SWAP1 POP SWAP2 SWAP1 POP JUMP JUMPDEST PUSH1 0x0 PUSH1 0x20 DUP3 ADD SWAP1 POP DUP2 DUP2 SUB PUSH1 0x0 DUP4 ADD MSTORE PUSH2 0x472 DUP2 PUSH2 0x436 JUMP JUMPDEST SWAP1 POP SWAP2 SWAP1 POP JUMP JUMPDEST PUSH1 0x0 PUSH2 0x484 DUP3 PUSH2 0x278 JUMP JUMPDEST SWAP2 POP PUSH2 0x48F DUP4 PUSH2 0x278 JUMP JUMPDEST SWAP3 POP DUP3 DUP3 SUB SWAP1 POP DUP2 DUP2 GT ISZERO PUSH2 0x4A7 JUMPI PUSH2 0x4A6 PUSH2 0x31D JUMP JUMPDEST JUMPDEST SWAP3 SWAP2 POP POP JUMP INVALID LOG2 PUSH5 0x6970667358 0x22 SLT KECCAK256 0xD7 0xCD 0x4C 0x1F LOG3 PUSH16 0x290258E7BD6C05CCF2B1FE5D9D7D51DC 0x2F CODESIZE PUSH6 0xA7414DFEE982 0x25 PUSH5 0x736F6C6343 STOP ADDMOD SLT STOP CALLER "},"methodIdentifiers":{"add(uint256,uint256)":"771602f7","addition()":"ec597128","div(uint256,uint256)":"a391c15b","divided()":"34390d45","mult(uint256,uint256)":"9aa727f6","multiple()":"437a8ae6","sub(uint256,uint256)":"b67d77c5","subtract()":"6deebae3"}}}}}