{
  "_format": "hh-sol-artifact-1",
  "contractName": "Counter",
  "sourceName": "contracts/Counter.sol",
  "abi": [
    {
      "inputs": [
        {
          "internalType": "uint256",
          "name": "_num1",
          "type": "uint256"
        },
        {
          "internalType": "uint256",
          "name": "_num2",
          "type": "uint256"
        }
      ],
      "name": "add",
      "outputs": [],
      "stateMutability": "nonpayable",
      "type": "function"
    },
    {
      "inputs": [],
      "name": "addition",
      "outputs": [
        {
          "internalType": "uint256",
          "name": "",
          "type": "uint256"
        }
      ],
      "stateMutability": "view",
      "type": "function"
    },
    {
      "inputs": [
        {
          "internalType": "uint256",
          "name": "_num1",
          "type": "uint256"
        },
        {
          "internalType": "uint256",
          "name": "_num2",
          "type": "uint256"
        }
      ],
      "name": "div",
      "outputs": [],
      "stateMutability": "nonpayable",
      "type": "function"
    },
    {
      "inputs": [],
      "name": "divided",
      "outputs": [
        {
          "internalType": "uint256",
          "name": "",
          "type": "uint256"
        }
      ],
      "stateMutability": "view",
      "type": "function"
    },
    {
      "inputs": [
        {
          "internalType": "uint256",
          "name": "_num1",
          "type": "uint256"
        },
        {
          "internalType": "uint256",
          "name": "_num2",
          "type": "uint256"
        }
      ],
      "name": "mult",
      "outputs": [],
      "stateMutability": "nonpayable",
      "type": "function"
    },
    {
      "inputs": [],
      "name": "multiple",
      "outputs": [
        {
          "internalType": "uint256",
          "name": "",
          "type": "uint256"
        }
      ],
      "stateMutability": "view",
      "type": "function"
    },
    {
      "inputs": [
        {
          "internalType": "uint256",
          "name": "_num1",
          "type": "uint256"
        },
        {
          "internalType": "uint256",
          "name": "_num2",
          "type": "uint256"
        }
      ],
      "name": "sub",
      "outputs": [],
      "stateMutability": "nonpayable",
      "type": "function"
    },
    {
      "inputs": [],
      "name": "subtract",
      "outputs": [
        {
          "internalType": "uint256",
          "name": "",
          "type": "uint256"
        }
      ],
      "stateMutability": "view",
      "type": "function"
    }
  ],
  "bytecode": "0x608060405234801561001057600080fd5b506104e3806100206000396000f3fe608060405234801561001057600080fd5b50600436106100885760003560e01c80639aa727f61161005b5780639aa727f614610103578063a391c15b1461011f578063b67d77c51461013b578063ec5971281461015757610088565b806334390d451461008d578063437a8ae6146100ab5780636deebae3146100c9578063771602f7146100e7575b600080fd5b610095610175565b6040516100a29190610291565b60405180910390f35b6100b361017b565b6040516100c09190610291565b60405180910390f35b6100d1610181565b6040516100de9190610291565b60405180910390f35b61010160048036038101906100fc91906102dd565b610187565b005b61011d600480360381019061011891906102dd565b61019d565b005b610139600480360381019061013491906102dd565b6101b3565b005b610155600480360381019061015091906102dd565b6101d6565b005b61015f610272565b60405161016c9190610291565b60405180910390f35b60035481565b60025481565b60015481565b8082610193919061034c565b6000819055505050565b80826101a99190610380565b6002819055505050565b600081116101c057600080fd5b80826101cc91906103f1565b6003819055505050565b60008211610219576040517f08c379a000000000000000000000000000000000000000000000000000000000815260040161021090610459565b60405180910390fd5b6000811161025c576040517f08c379a000000000000000000000000000000000000000000000000000000000815260040161025390610459565b60405180910390fd5b80826102689190610479565b6001819055505050565b60005481565b6000819050919050565b61028b81610278565b82525050565b60006020820190506102a66000830184610282565b92915050565b600080fd5b6102ba81610278565b81146102c557600080fd5b50565b6000813590506102d7816102b1565b92915050565b600080604083850312156102f4576102f36102ac565b5b6000610302858286016102c8565b9250506020610313858286016102c8565b9150509250929050565b7f4e487b7100000000000000000000000000000000000000000000000000000000600052601160045260246000fd5b600061035782610278565b915061036283610278565b925082820190508082111561037a5761037961031d565b5b92915050565b600061038b82610278565b915061039683610278565b92508282026103a481610278565b915082820484148315176103bb576103ba61031d565b5b5092915050565b7f4e487b7100000000000000000000000000000000000000000000000000000000600052601260045260246000fd5b60006103fc82610278565b915061040783610278565b925082610417576104166103c2565b5b828204905092915050565b600082825260208201905092915050565b50565b6000610443600083610422565b915061044e82610433565b600082019050919050565b6000602082019050818103600083015261047281610436565b9050919050565b600061048482610278565b915061048f83610278565b92508282039050818111156104a7576104a661031d565b5b9291505056fea2646970667358221220d7cd4c1fa36f290258e7bd6c05ccf2b1fe5d9d7d51dc2f3865a7414dfee9822564736f6c63430008120033",
  "linkReferences": {},
  "deployedLinkReferences": {}
}